:02000004080AE8
:1000000000000A08B41D0A080000060006000501E9
:080010000402E80500000000F5
:04001800481A0A0870
:10001C0009480A4908B5884205D0094A824202D0EB
:10002C00121A01F0C7FC0748074A0021121A01F006
:10003C00CCFC064808BD00BF00000020241D0A08A7
:10004C006800002068000020188A0020188A002010
:10005C0070B501F061FA074B074C1E46E41AA40870
:10006C000025A54204D056F8253098470135F8E70D
:10007C0070BD00BFE01C0A08181D0A0800F0AEB8DD
:10008C0008B500F0BDF8BDE8084001F007BA00F073
:10009C004DBD00F053BD0078B0FA80F040097047B8
:1000AC000123037070470000C3781BB3174BDA6849
:1000BC004378D243C2F30222C2F10401C9B28B408D
:1000CC00D9B20F2313418278134002780B431B01E2
:1000DC0002F16042DBB202F5614282F80033037830
:1000EC000122590903F01F0302FA03F3084A42F8EC
:1000FC0021307047037801215A0903F01F039940FE
:10010C0002F12003024A42F82310704700ED00E090
:10011C0000E100E0044B1A6C09B1104301E022EA43
:10012C0000001864704700BF003802401C4A038866
:10013C0090429BB212D002F5806290420ED0B0F188
:10014C00804F0BD0A2F58032904207D002F580622E
:10015C00904203D002F58062904203D14A8823F08A
:10016C00700313430F4A904208D002F5806290420C
:10017C001FBF23F440730A899BB2134303804B685F
:10018C00C3620B880385064B984203D003F580634A
:10019C00984201D18B7A038601238382704700BF7A
:1001AC000000014000100040038819B19BB243F0DD
:1001BC00010303E023F001031B041B0C03807047B5
:1001CC0083899BB20AB1194301E023EA01018181C1
:1001DC007047C94389B201827047000010B5074CC3
:1001EC000121072001F002FA204600F081FA204696
:1001FC00BDE810404EF2070100F0ADB874000020CD
:10020C000E4A1368591C11606421B3FBF1F201FB17
:10021C0012334BB1322B0ED1094B1B68D3F8C420CF
:10022C00B3F8C830538306E0054B1B68D3F8C420E1
:10023C00B3F8C8301383034800F018BA6C000020E0
:10024C00700000207400002030B587B000F0D8FAA0
:10025C000E4B822204AC18601146204600F01EF8AA
:10026C0002A800F06BFABDF80C30094DADF8003067
:10027C0094E80600029B284600F054F8054A06490B
:10028C00284601F01DFA07B030BD00BF70000020F9
:10029C00740000206800002061030A0810B50024D7
:1002AC00048044808180C28010BD03681847012AF5
:1002BC0002D0022A02D004E0016002E00B6800B117
:1002CC00036000207047000008B501210348FFF7C8
:1002DC0080FF034B01221A7008BD00BF000C0040C8
:1002EC009C84002010B50446806808B100F060FAC8
:1002FC00204610BD1C235843034B1B681A189288C8
:10030C001B581A83704700BFA08400201C2358433D
:10031C00034B1B681A1892881B585A83704700BFEE
:10032C00A084002082B013B505936B4604468DE87B
:10033C00060003CB04AB206053F8040F6160A0608F
:10034C0020469B88A3810023A37302B0BDE8104014
:10035C0002B07047704700F10E0300F504401630F0
:10036C0023F8021F8342FBD17047000070B50121B6
:10037C0088B006460820FFF7CDFE01243223002565
:10038C0068468DF800308DF801508DF802408DF8DC
:10039C000340FFF789FE4FF49663029301A94FF4D3
:1003AC0000731448ADF80C30ADF80440ADF80650AD
:1003BC00FFF7BCFE104B04A90493104B1C200793B1
:1003CC000F4B069300F030FC069B1BB104A90322D3
:1003DC0008469847012211460648FFF7F1FE012115
:1003EC000448FFF7E1FE00213046FFF7B4FF08B0E8
:1003FC0070BD00BF000C0040D5020A08B7020A0805
:10040C00BB020A0810B504468089FFF77FFF642001
:10041C0000F0A4FBA089FFF76DFFBDE8104032206F
:10042C0000F09CBB38B50B4D296811F001040FD1BD
:10043C002846FFF730FE58B12146074800F051FD21
:10044C002846FFF72DFE054A0549034801F038F907
:10045C00014838BD8C840020908400206800002066
:10046C00F1020A0810B50446FFF7DCFF2146BDE88F
:10047C00104000F0E1BD38B5044600891546FFF781
:10048C0045FF6089FFF742FF0846FFF7EBFF208925
:10049C00FFF730FF2089FFF739FF6089FFF72AFF4C
:1004AC00C5F30720FFF7DEFFE8B2FFF7DBFF20897B
:1004BC00BDE83840FFF71EBF10B50446FFF7A2FF9A
:1004CC00204642F68E721021FFF7D5FF20460C22F3
:1004DC001121FFF7D0FF204621220721FFF7CBFF88
:1004EC00204606222821FFF7C6FF20460522282198
:1004FC00FFF7C1FF204640F27F522721FFF7BBFFD9
:10050C00204648F6A1122921FFF7B5FF0122002150
:10051C002046FFF7B0FF642000F020FB48F2B00249
:10052C0029212046FFF7A7FF1E2000F017FB2046CD
:10053C004FF6FE722921FFF79EFF2322072120464A
:10054C00FFF799FF1E2000F009FB204640F23322F2
:10055C000721FFF790FF204642F283120121FFF79B
:10056C008AFF204646F630020321FFF784FF20461F
:10057C004FF6FF722F21FFF77EFF20464FF400420B
:10058C002C21FFF778FF20464FF4AE622721FFF7AE
:10059C0072FF20464FF440720221FFF76CFF204699
:1005AC0045F60C020B21FFF766FF204640F209626C
:1005BC001221FFF760FF20464FF444521321FFF73E
:1005CC005AFFBDE810400A2000F0C8BA70B50446C6
:1005DC00008916461D46FFF799FE6089FFF796FEC7
:1005EC000846FFF73FFF2089FFF784FE2089FFF7BD
:1005FC008DFE6089FFF77EFE3046FFF733FF2846FD
:10060C00FFF730FF2089BDE87040FFF773BE10B5CF
:10061C000446017802798B1C0A440132DBB2D2B257
:10062C004421FFF7D3FFA178A2798B1C0A44013235
:10063C002046DBB2D2B24521FFF7C8FFA37822785F
:10064C0002330232DBB2D2B221212046FFF7BEFFC9
:10065C002089FFF75BFE6089FFF758FE2220FFF729
:10066C0001FF2089BDE81040FFF744BE37B5144B9D
:10067C0005461A7812B30024214620461C7000F05F
:10068C0087F82846FFF7C3FF2889FFF73FFE6889E4
:10069C00FFF730FEFFF7C6FE05F1100148F20843E4
:1006AC002246009400F0CEFC2889FFF723FE214659
:1006BC00012003B0BDE8304000F06AB803B030BD93
:1006CC009C84002008B5FFF7ADFE002100F090FCE3
:1006DC00FFF7A8FE00F014FCFFF7A4FE012100F0C8
:1006EC001FFCFFF79FFEBDE80840002100F028BC6E
:1006FC0010B5837B044663B9FFF7E4FF2046FFF790
:10070C0081FE2046FFF7D8FE2046FFF72FFE01237F
:10071C00A37310BD08B500F073F8014B186008BD49
:10072C00A08400201C235843034B1B681A18928882
:10073C001B581A83704700BFA484002010B50446D0
:10074C000B230C2063800A23A3802080012100F05E
:10075C004DFFA088012100F049FF6088012100F0C5
:10076C0045FF0121072000F041FF2088FFF7DAFF49
:10077C006088FFF7D7FFA088FFF7D4FF204610BD95
:10078C0008B500F03DF8014B186008BDA4840020AA
:10079C0008B5024B1B68DB69019308BDD001060844
:1007AC0008B5024B1B685B6C019308BDD0010608B1
:1007BC0008B5024B1B689B6C019308BDD001060861
:1007CC0008B5024B1B68DB6C019308BDD001060811
:1007DC0008B5024B1B685B6D019308BDD001060880
:1007EC0008B5024B1B685B68019308BD9C010608A9
:1007FC0008B5024B1B685B69019308BD9C01060898
:10080C0008B5024B1B681B68019308BDB0010608B4
:10081C0008B5024B1B689B68019308BDB001060824
:10082C0008B5024B1B681B6C019308BDB001060890
:10083C0008B5024B1B681B6E019308BDAC01060882
:10084C0008B5024B1B685B6E019308BDAC01060832
:10085C0008B5024B1B689B6E019308BDAC010608E2
:10086C0008B5024B1B68DB6E019308BDAC01060892
:10087C0008B5024B1B681B6F019308BDAC01060841
:10088C0008B5024B1B685B6F019308BDAC010608F1
:10089C0008B5034B1B68D3F88030019308BD0000EA
:1008AC00AC01060808B5024B1B681B68019308BD18
:1008BC00B401060808B5024B1B689B68019308BD80
:1008CC00B401060808B5024B1B68DB68019308BD30
:1008DC00B401060808B5024B1B681B69019308BDDF
:1008EC00B401060808B5024B1B685B69019308BD8F
:1008FC00B401060808B5024B1B68DB69019308BDFF
:10090C00B401060808B5024B1B681B6A019308BDAD
:10091C00B401060808B5024B1B685B6A019308BD5D
:10092C00B401060808B5024B1B689B6A019308BD0D
:10093C00B401060808B5024B1B689B6B019308BDFC
:10094C00B401060808B5024B1B689B69019308BDEE
:10095C00C401060808B5024B1B685B6A019308BD0D
:10096C00C401060808B5024B1B689B6A019308BDBD
:10097C00C401060808B5024B1B68DB6A019308BD6D
:10098C00C401060808B5024B1B681B6B019308BD1C
:10099C00C401060808B5024B1B685B6B019308BDCC
:1009AC00C401060808B5024B1B689B6B019308BD7C
:1009BC00C401060808B5024B1B681B6C019308BDEB
:1009CC00C401060808B5024B1B681B68019308BDDF
:1009DC00D801060808B5024B1B681B69019308BDBA
:1009EC00D801060808B5024B1B685B69019308BD6A
:1009FC00D801060808B5024B1B689B69019308BD1A
:100A0C00D801060808B5024B1B68DB69019308BDC9
:100A1C00D801060808B5024B1B681B6A019308BD78
:100A2C00D801060808B5024B1B689B6C019308BDE6
:100A3C00C001060808B5024B1B685B68019308BD32
:100A4C00A401060808B5024B1B685B69019308BD3D
:100A5C00A401060808B5034B1B68D3F8903001932A
:100A6C0008BD0000A401060808B5034B1B68D3F8A9
:100A7C009C30019308BD0000A401060808B5024B88
:100A8C001B68DB6B019308BDCC01060808B5024B53
:100A9C001B685B68019308BDC801060808B5024BCA
:100AAC001B689B68019308BDC801060808B5024B7A
:100ABC001B68DB68019308BDC801060808B5024B2A
:100ACC001B681B69019308BDC801060808B5024BD9
:100ADC001B685B69019308BDC801060808B5024B89
:100AEC001B689B69019308BDC801060808B5024B39
:100AFC001B68DB69019308BDC801060808B5024BE9
:100B0C001B681B6A019308BDC801060808B5024B97
:100B1C001B681B6B019308BDC801060808B5024B86
:100B2C001B685B6B019308BDC801060808B5024B36
:100B3C001B681B68019308BDA001060808B5024B91
:100B4C001B685B68019308BDA001060808B5024B41
:100B5C001B68DB6A019308BDA00106080021FFF7A2
:100B6C0071BF10B58368044613B103220146984740
:100B7C00204610BD7047F8B5064615460C468F1832
:100B8C00BC4206D0336814F8011B9B68304698476A
:100B9C00F6E72846F8BD0022007CFFF749BE00218D
:100BAC00007CFFF74DBE0021007CFFF751BE0021F9
:100BBC00007CFFF755BE0021007CFFF759BE10B535
:100BCC000446142100F081FD204610BD10B50446EA
:100BDC00002363604FF47A73A360044B21740846BE
:100BEC0023601146FFF754FE204610BD641A0A0814
:100BFC000021007CFFF744BE826810B50AB900F0F2
:100C0C0080FDC368BDE81040184738B500238360E9
:100C1C008B6804460D462BB102229847EB68E360C3
:100C2C00AB68A360204638BD7FB5124B044610203C
:100C3C000E460093FFF72BFA054610B13146FFF72D
:100C4C00E4FF0023204602AA694601950293039310
:100C5C00FFF7E6FD039C051C18BF012534B12046A7
:100C6C00FFF77FFF1021204600F02FFD284604B02F
:100C7C0070BD00BF050C0A08704710B5044618215A
:100C8C0000F023FD204610BDF8B50F4600F1080614
:100C9C00051D002416F8011D0A22384600F0EBF859
:100CAC00AE42044407D0002CF4D02E21384600F07C
:100CBC00DFF80444EEE72046F8BD000010B504460A
:100CCC00044B112240F8043B002100F07EFE20462C
:100CDC0010BD00BF8C1A0A080346074A10B543F82A
:100CEC00042B01F1100251F8044B914243F8044BD0
:100CFC00F9D10A781A7010BD8C1A0A08024A4160A0
:100D0C0002600422027570478C1A0A0810B59DF80F
:100D1C00084044EA032343EA024242EA0161042305
:100D2C004160037510BD000037B5044D05609DF89A
:100D3C0018500095FFF7EAFF03B030BD8C1A0A0873
:100D4C000068FFF73DBD0000014A024B1A60704776
:100D5C000E1B0A08A884002000231A464068FFF7DF
:100D6C0095BE002202214068FFF7A0BE002211466A
:100D7C004068FFF793BE002211464068FFF79EBE05
:100D8C0000231A4619464068FFF7A0BE00231A46F6
:100D9C0019464068FFF7A2BE002281F001014068AD
:100DAC00FFF7A4BE00224068FFF7B0BE0022114638
:100DBC004068FFF7B3BE002211464068FFF79EBEA5
:100DCC0070B516468EB0044608A8FFF777FF1122BF
:100DDC00002103A800F0F9FD304600F027FE0025A5
:100DEC000A4B009581B25B6803AA3046FFF71AFEE6
:100DFC0020B129462046FFF781FF03E003A92046D6
:100E0C00FFF76AFF20460EB070BD00BF308900208E
:100E1C00024B034A1A6000225A607047AC840020CF
:100E2C00841B0A08F8B506460D468F180024BD42EF
:100E3C000CD0336815F8011B9B6830469847002886
:100E4C0001DB0444F3E7002C08BF04462046F8BD40
:100E5C0070B505460C46084649B100F0E7FD2B6815
:100E6C00024621462846BDE87040DB68184770BD35
:100E7C0003689B681847012A98BF0A2230B50B46B5
:100E8C008BB000218DF824100DF12304B3FBF2F587
:100E9C0005FB1233DBB2092B94BF30333733DBB293
:100EAC00214604F801392B46002DEFD1FFF7D0FF76
:100EBC000BB030BD10B50446FFF753FE204610BDF5
:100ECC00034800238360034A034900F0F9BB00BFC9
:100EDC00B484002068000020C10E0A080068FFF7E7
:100EEC0077BC70B504460E46002540F8085FFFF746
:100EFC0057FC30462670FFF7FDFC6560204670BD40
:100F0C0038B5054600F108042046FFF719FF28788C
:100F1C004FF6FF71FFF7C6FC2046FFF7DFFF38BD29
:100F2C0070B505460E4600F108042046FFF708FF91
:100F3C0028783146FFF7BEFC2046FFF7CFFF70BD87
:100F4C0070B505460E4600F108042046FFF7F8FE82
:100F5C0028783146FFF7B6FC2046FFF7BFFF70BD7F
:100F6C00400830B5186000241868E5B2884206D9EC
:100F7C000134082C02D040081860F5E70725024B15
:100F8C005B5D137030BD00BFB01B0A082DE9F0414A
:100F9C00054600F1080688B0002402FB01F7304634
:100FAC000294FFF7CDFE95F800802146142203A889
:100FBC0000F00BFD0B23224603A94046ADF80C3084
:100FCC00FFF7A8FC02AB0DF10702394604988DF827
:100FDC000740FFF7C5FF9DF807102878FFF77AFC4C
:100FEC003046FFF77BFF029808B0BDE8F0810000A7
:100FFC0070B5044600F1080528460E46FFF7A0FE22
:10100C00616879B10B4A0023985CB04202D001337D
:10101C00082BF9D10133DBB20122D9402046FFF76E
:10102C00B5FF03E031462078FFF754FC2846FFF764
:10103C0055FF70BDB01B0A0808B50078FFF752FCCD
:10104C00C0B208BD30B587B00A9D04460078009543
:10105C00FFF768FC3DB902A92078FFF76BFC9DF8FF
:10106C001430DB07F7D407B030BD0078FFF74ABC6B
:10107C0010B50446006818B1FFF760FD002323602B
:10108C0010BD10B50446FFF7F3FF204610BD00005D
:10109C004FF6FF7310B5084C00202060A080A071A3
:1010AC0020816381FFF7C6FC2046BDE81040034A4F
:1010BC00034900F005BB00BFC48400206800002079
:1010CC008F100A08024B1A68024B1A60704700BF57
:1010DC0000000020D084002070474174704708B590
:1010EC00007CFFF767FC20EAE07008BD08B5007CC7
:1010FC00FFF738FC20EAE07008BD08B5007CFFF76C
:10110C0041FC30EA200028BF4FF0FF3008BD08B585
:10111C00007CFFF72FFC30EA200028BF4FF0FF3097
:10112C0008BD007CFFF736BC10B50446142100F056
:10113C00CCFA204610BD70B5457C04460E4625B948
:10114C00007CFFF737FC002805DD3146207CBDE82C
:10115C007040FFF7FFBB284670BD000010B5044679
:10116C0008461146002262604FF47A72A260054A6A
:10117C0020742260012262741A46FFF7E3FB2046BA
:10118C0010BD00BFEC1B0A08007CFFF70BBC000075
:10119C0038B50C4D296811F0010411D12846FEF721
:1011AC007AFF68B1084A2146084B0948FFF7D6FF79
:1011BC002846FEF775FF074A0749054800F080FAF4
:1011CC00034838BD6C85002070850020E884002021
:1011DC00D484002068000020E5100A084174704790
:1011EC00704708B50021007CFFF704FC30EA2000B2
:1011FC0028BF4FF0FF3008BD08B50121007CFFF778
:10120C00F9FB30EA200028BF4FF0FF3008BD08B5CD
:10121C00007CFFF7E7FB20EAE07008BD08B5007C16
:10122C00FFF7D8FB20EAE07008BD007CFFF7F2BBAB
:10123C0010B50446142100F048FA204610BD38B50C
:10124C000446007C0D46FFF7CDFB002801DC607CDA
:10125C0028B12946207CFFF7D5FB20EAE07038BD89
:10126C0010B50446002363604FF47A73A360054BFA
:10127C00084623600123217463741146FFF7A2FB17
:10128C00204610BD1C1C0A0810B50446142200216F
:10129C0000F09BFB054B20466360054BE36040F27E
:1012AC00011323818123238210BD00BF7986002086
:1012BC00F885002030B50E4D87B001A8FFF7E4FF8C
:1012CC00296811F0010410D12846FEF7E4FE60B144
:1012DC0001AA21460748FFF7C3FF2846FEF7E0FEA8
:1012EC00054A0649034800F0EBF9024807B030BD47
:1012FC00F48500207C87002068000020ED110A088E
:10130C0010B504461422002100F05FFB054B20466B
:10131C006360054BE36040F2011323818123238238
:10132C0010BD00BF2C8800209487002010B50E4CF7
:10133C0086B001A8FFF7E4FF2368DB0710D4204632
:10134C00FEF7A9FE60B101AA01210848FFF788FF4A
:10135C002046FEF7A5FE064A0649044800F0B0F9FF
:10136C00024806B010BD00BF9087002018880020EE
:10137C0068000020ED110A08002211464068FFF7B2
:10138C009DBBF0B5164689B011220F4604460021CC
:10139C0003A800F01AFB304600F048FB002500952E
:1013AC0081B27B6803AA3046FFF73CFB20B129468B
:1013BC002046FFF7A3FC03E003A92046FFF78CFCB3
:1013CC00204609B0F0BD002211464068FFF796BBDD
:1013DC00002211464068FFF7A1BB00224068FFF7CE
:1013EC0095BB002281F001014068FFF77FBB002311
:1013FC001A4619464068FFF771BB00231A46194676
:10140C004068FFF763BB002211464068FFF746BBFC
:10141C00002202214068FFF749BB00231A464068AE
:10142C00FFF734BB024B04225A60024A1A60704721
:10143C00308900204C1C0A0808B5144B33B1FFF757
:10144C0039FF03681B699847002816DC104B33B131
:10145C00FFF79EFE03681B699847002810DC0D4BB4
:10146C000BB1AFF300800C4B7BB1FFF75FFF036850
:10147C001B699847002806DC08BDAFF30080E5E740
:10148C00AFF30080EBE7AFF3008008BD0000000075
:10149C0000000000000000000000000008B5FFF78D
:1014AC00CBFFFFF7A5F9014B186008BD4089002060
:1014BC000248034A0349121A00F07CBA0040024069
:1014CC0004400240201D0A0807B5002300931A4669
:1014DC006FF07701FFF7C8FA03B05DF804FB00006A
:1014EC0007B543880A2B08D0502B09D1094B1B6830
:1014FC003BB103B05DF804EB1847FFF7E5FF06E0DE
:10150C00002300931A466FF07701FFF7ADFA03B092
:10151C005DF804FB3889002038B5104C104D236859
:10152C00AB42104B0CBF012200221A7002D0FFF705
:10153C00BFFF2560FFF754F9044600F04FFA0A4B41
:10154C0013B12046AFF3008000210748FFF796FA4D
:10155C00BDE8384000210548FFF77CBA0040024046
:10156C001E1C279A3C89002000000000ED140A087C
:10157C0070B51A4E0446316811F001050FD1304692
:10158C00FEF789FD58B129461548FFF7AAFC3046ED
:10159C00FEF786FD134A1449114800F091F81048E3
:1015AC00FFF763FD28B1A4F10D03022B01D8002035
:1015BC0070BD00F047F8FFF71BFB08B1012CF6D902
:1015CC00FFF7E6FDFFF7E0FD18B1A4F11203012BC4
:1015DC00EDD9172C8CBF0020012070BD8C8400200D
:1015EC009084002068000020F1020A08172838B502
:1015FC0004460D460AD8FF2908D0FFF7B9FF28B1D9
:10160C0029462046BDE83840FFF702B938BD000036
:10161C0070B5044614252A46094E002100F0D5F970
:10162C00258020253146A5602561284600F067F805
:10163C0031466060284600F062F8E060204670BDDC
:10164C00781C0A0830B50E4D87B0296811F00104DA
:10165C0013D12846FEF71FFD78B101A8FFF7D8FF7C
:10166C0001AA21460748FFF7B1FA2846FEF718FDF4
:10167C00054A0649034800F023F8024807B030BD7C
:10168C00448900204889002068000020810B0A084A
:10169C0013B5084C00231A46194600932046FFF751
:1016AC0043FB2046044A054902B0BDE8104000F057
:1016BC0007B800BF5C89002068000020850C0A0870
:1016CC000B460146184600F067B9FEF7E2BC000075
:1016DC00024B1868BFF35F8F704700BF74890020FE
:1016EC0010B5002814BF044601242046FFF71EFA4B
:1016FC0020B9FFF7EDFF08B18047F6E710BDFFF703
:10170C00EFBF08B5FFF722FA244B1A68D0075CBF6D
:10171C0001221A60224B1A68D1075CBF01221A60A1
:10172C00204B1A68D2075CBF01221A601E4B1A6844
:10173C00D0075CBF01221A601C4B1A68D1075CBF32
:10174C0001221A601A4B1A68D2075CBF01221A6078
:10175C00184B1A68D0075CBF01221A60164B1A6826
:10176C00D1075CBF01221A60144B1A68D2075CBF08
:10177C0001221A60124B1A68D0075CBF01221A6052
:10178C00104B1A68D1075CBF01221A600E4B1A6805
:10179C00D2075CBF01221A60704700BFA4890020E9
:1017AC00A08900209C890020988900209489002021
:1017BC00908900208C890020888900208489002051
:1017CC00808900207C89002078890020184B1A68B9
:1017DC00D1075CBF01221A60164B1A68D2075CBF96
:1017EC0001221A60144B1A68D0075CBF01221A60E0
:1017FC00124B1A68D1075CBF01221A60104B1A6891
:10180C00D2075CBF01221A600E4B1A68D0075CBF6E
:10181C0001221A600C4B1A68D1075CBF01221A60B6
:10182C000A4B1A68D2075CBF01221A60704700BFCE
:10183C00C4890020C0890020BC890020B889002000
:10184C00B4890020B0890020AC890020A889002030
:10185C00184B1A68D1075CBF01221A60164B1A6824
:10186C00D2075CBF01221A60144B1A68D0075CBF08
:10187C0001221A60124B1A68D1075CBF01221A6050
:10188C00104B1A68D2075CBF01221A600E4B1A6803
:10189C00D0075CBF01221A600C4B1A68D1075CBFE1
:1018AC0001221A600A4B1A68D2075CBF01221A6027
:1018BC00704700BFE4890020E0890020DC8900200B
:1018CC00D8890020D4890020D0890020CC89002020
:1018DC00C8890020244B1A68D0075CBF01221A600B
:1018EC00224B1A68D1075CBF01221A60204B1A6880
:1018FC00D2075CBF01221A601E4B1A68D0075CBF6E
:10190C0001221A601C4B1A68D1075CBF01221A60B5
:10191C001A4B1A68D2075CBF01221A60184B1A685E
:10192C00D0075CBF01221A60164B1A68D1075CBF46
:10193C0001221A60144B1A68D2075CBF01221A608C
:10194C00124B1A68D0075CBF01221A60104B1A6840
:10195C00D1075CBF01221A600E4B1A68D2075CBF1C
:10196C0001221A60704700BF148A0020108A0020E0
:10197C000C8A0020088A0020048A0020008A00209B
:10198C00FC890020F8890020F4890020F0890020CF
:10199C00EC890020E889002010B5054C13462CB1C9
:1019AC000A4601460220AFF3008010BD204610BD50
:1019BC000000000010B5431E0A44914204D011F8F7
:1019CC00014B03F8014FF8E710BD03460244934264
:1019DC0002D003F8011BFAE77047000038B5124B30
:1019EC0005461C68A36BD3B91820FFF79FF843F288
:1019FC000E33A06303804AF6CD33438041F2342387
:101A0C0083804EF26D63C3804DF6EC630381052336
:101A1C0043810B23838101220023C0E90423A36BA0
:101A2C0000221D615A6138BD64000020034613F882
:101A3C00012B002AFBD1181A013870471D000A0827
:101A4C005D000A0889000A088D000A0800000000E1
:101A5C000000000000000000810B0A08CB0B0A08F4
:101A6C00A30B0A08830B0A08AB0B0A08B30B0A0872
:101A7C00BB0B0A08C30B0A080000000000000000A2
:101A8C00950C0A08850C0A08870C0A0862617564B3
:101A9C000053657269616C005553425365726961FC
:101AAC006C31007479706500706172616D00636DEA
:101ABC006400696400686E64007374726D0066691A
:101ACC006C74006C766C0061646448616E646C6567
:101ADC00720072656D6F766548616E646C6572003C
:101AEC00656E756D48616E646C657273004A534F18
:101AFC004E53747265616D4C6F6748616E646C65B2
:101B0C00720061707000253031307520005D20004E
:101B1C002564002C200028293A2000205B00636FEC
:101B2C006465203D200025690064657461696C73EF
:101B3C00203D20000D0A0066006C6E00666E00638E
:101B4C006F64650064657461696C006E6F6E65002E
:101B5C00747261636500696E666F007761726E0006
:101B6C006572726F720070616E696300616C6C00FB
:101B7C000000000000000000650D0A086F0D0A0847
:101B8C00790D0A08830D0A088D0D0A08990D0A08AB
:101B9C00A50D0A08B10D0A08B90D0A08C30D0A08EB
:101BAC00CD0D0A0800081018202830385A00252BB3
:101BBC003033643A253032750025592D256D2D258D
:101BCC00645425483A254D3A2553257A00617363B0
:101BDC0074696D650000000000000000000000004A
:101BEC00E5100A0835110A0843110A08310E0A08D3
:101BFC00F9100A081B110A0807110A082F110A0804
:101C0C00E7100A08EB100A080000000000000000B2
:101C1C00ED110A083D120A084B120A08310E0A0887
:101C2C0029120A08EF110A0805120A0837120A08C5
:101C3C001B120A08E9110A0800000000000000004D
:101C4C0027140A081D140A0813140A0885130A0815
:101C5C0007140A08FB130A08EF130A08E7130A080B
:101C6C00DD130A08D3130A088F130A0800000000BA
:101C7C000000000000000000000000000000000058
:101C8C000000000000000000000000000000000048
:101C9C000000000000000000000000000000000038
:101CAC000000000000000000000000000000000028
:101CBC000000000000000000000000000000000018
:101CCC000000000000000000000000000000000008
:101CDC004300000055020A0821070A088D070A086C
:101CEC00550D0A081D0E0A08CD0E0A089D100A088B
:101CFC00D1100A0831140A089D160A0815170A088B
:101D0C00D9170A085D180A08E1180A080000000033
:041D1C0000000000C3
:041D200000000000BF
:101D2400D91B0A08000000007C1C0A089C1C0A0835
:101D3400BC1C0A08000000000000000000000000B5
:101D440000000000DC1C0A08000000000000000085
:101D5400000000000000000000000000000000007F
:101D6400000000000000000000000000000000006F
:101D7400000000000000000000000000000000005F
:081D8400000000000400002033
:101D8C00FFFFFFFF00000102030405060708090A14
:101D9C000B0C0D0E0F101112131415161718191A0F
:081DAC001B1C1D1E1F20280056
:041DB4007856341217
:04000005080A001CC9
:00000001FF
